{
  "contractName": "Coinflipl01",
  "abi": [
    {
      "inputs": [],
      "stateMutability": "nonpayable",
      "type": "constructor"
    },
    {
      "inputs": [],
      "name": "balance",
      "outputs": [
        {
          "internalType": "uint256",
          "name": "",
          "type": "uint256"
        }
      ],
      "stateMutability": "view",
      "type": "function"
    },
    {
      "inputs": [],
      "name": "getBalance",
      "outputs": [
        {
          "internalType": "uint256",
          "name": "",
          "type": "uint256"
        }
      ],
      "stateMutability": "view",
      "type": "function"
    },
    {
      "inputs": [],
      "name": "random",
      "outputs": [
        {
          "internalType": "uint256",
          "name": "",
          "type": "uint256"
        }
      ],
      "stateMutability": "view",
      "type": "function"
    },
    {
      "inputs": [],
      "name": "flipping",
      "outputs": [],
      "stateMutability": "payable",
      "type": "function"
    },
    {
      "inputs": [],
      "name": "withdrawAll",
      "outputs": [
        {
          "internalType": "uint256",
          "name": "",
          "type": "uint256"
        }
      ],
      "stateMutability": "nonpayable",
      "type": "function"
    }
  ],
  "bytecode": "0x608060405234801561001057600080fd5b50336000806101000a81548173ffffffffffffffffffffffffffffffffffffffff021916908373ffffffffffffffffffffffffffffffffffffffff160217905550610244806100606000396000f3fe60806040526004361061004a5760003560e01c806312065fe01461004f5780635ec01e4d1461007a578063853828b6146100a5578063b69ef8a8146100d0578063dcf55bb2146100fb575b600080fd5b34801561005b57600080fd5b50610064610105565b6040518082815260200191505060405180910390f35b34801561008657600080fd5b5061008f61010f565b6040518082815260200191505060405180910390f35b3480156100b157600080fd5b506100ba610121565b6040518082815260200191505060405180910390f35b3480156100dc57600080fd5b506100e561017f565b6040518082815260200191505060405180910390f35b610103610185565b005b6000600154905090565b60006002428161011b57fe5b06905090565b600080600154905060006001819055503373ffffffffffffffffffffffffffffffffffffffff166108fc829081150290604051600060405180830381858888f19350505050158015610177573d6000803e3d6000fd5b508091505090565b60015481565b670de0b6b3a76400008034101561019b57600080fd5b6000429050600034905060008160030290506000600284816101b957fe5b061415610208573373ffffffffffffffffffffffffffffffffffffffff166108fc829081150290604051600060405180830381858888f19350505050158015610206573d6000803e3d6000fd5b505b5050505056fea264697066735822122023496f62fffeea60bfe75e3eabb15ff2f670d832a3c65f4d647546ddafd8cb2d64736f6c634300060a0033",
  "source": "import \"./Ownable.sol\";\r\n\r\npragma solidity 0.6.10;\r\n\r\n// SPDX-License-Identifier: UNLICENSED\r\n\r\ncontract Coinflipl01  {\r\n\r\n  address owner;\r\n  uint public balance;\r\n\r\n  constructor() public{\r\n    owner = msg.sender;\r\n  }\r\n\r\n  modifier costs(uint cost){\r\n    require(msg.value>=cost);\r\n    _;\r\n  }\r\n\r\n  function getBalance()  public  view returns (uint){\r\n    return balance;\r\n  }\r\n\r\n  function random() public view returns (uint){\r\n    return now % 2;\r\n  }\r\n\r\n  function flipping() public payable costs(1 ether){\r\n    uint time = block.timestamp;\r\n    uint bet = msg.value;\r\n    uint bet2 = 3*bet;\r\n    if (time % 2 ==0){\r\n      msg.sender.transfer(bet2);\r\n    }\r\n  }\r\n\r\n\r\n  function withdrawAll() public   returns(uint){\r\n    //checkBet(headTail);\r\n    uint toTransfer = balance;\r\n    balance = 0;\r\n    msg.sender.transfer(toTransfer);\r\n    return toTransfer;\r\n  }\r\n}\r\n",
  "sourcePath": "C:\\Users\\after\\Desktop\\projects\\Ivan_Academy\\ethereum_course201\\coinflip\\contracts\\coinflip01.sol",
  "compiler": {
    "name": "solc",
    "version": "0.6.10+commit.00c0fcaf.Emscripten.clang"
  },
  "schemaVersion": "3.0.23",
  "updatedAt": "2020-07-21T14:51:42.239Z",
  "devdoc": {
    "methods": {}
  },
  "userdoc": {
    "methods": {}
  }
}