{
  "contractName": "Coinflip00",
  "abi": [
    {
      "inputs": [],
      "name": "balance",
      "outputs": [
        {
          "internalType": "uint256",
          "name": "",
          "type": "uint256"
        }
      ],
      "stateMutability": "view",
      "type": "function"
    },
    {
      "inputs": [],
      "name": "bet",
      "outputs": [
        {
          "internalType": "uint256",
          "name": "",
          "type": "uint256"
        }
      ],
      "stateMutability": "view",
      "type": "function"
    },
    {
      "inputs": [],
      "name": "choice",
      "outputs": [
        {
          "internalType": "uint256",
          "name": "",
          "type": "uint256"
        }
      ],
      "stateMutability": "view",
      "type": "function"
    },
    {
      "inputs": [],
      "name": "owner",
      "outputs": [
        {
          "internalType": "address",
          "name": "",
          "type": "address"
        }
      ],
      "stateMutability": "view",
      "type": "function"
    },
    {
      "inputs": [],
      "name": "getChoice",
      "outputs": [
        {
          "internalType": "uint256",
          "name": "",
          "type": "uint256"
        }
      ],
      "stateMutability": "view",
      "type": "function"
    },
    {
      "inputs": [],
      "name": "random",
      "outputs": [
        {
          "internalType": "uint256",
          "name": "",
          "type": "uint256"
        }
      ],
      "stateMutability": "view",
      "type": "function"
    },
    {
      "inputs": [],
      "name": "flipping",
      "outputs": [],
      "stateMutability": "payable",
      "type": "function"
    },
    {
      "inputs": [],
      "name": "withdrawAll",
      "outputs": [
        {
          "internalType": "uint256",
          "name": "",
          "type": "uint256"
        }
      ],
      "stateMutability": "nonpayable",
      "type": "function"
    }
  ],
  "bytecode": "0x608060405234801561001057600080fd5b50336000806101000a81548173ffffffffffffffffffffffffffffffffffffffff021916908373ffffffffffffffffffffffffffffffffffffffff1602179055506103aa806100606000396000f3fe60806040526004361061007b5760003560e01c80638da5cb5b1161004e5780638da5cb5b1461012c57806398f42fe314610183578063b69ef8a8146101ae578063dcf55bb2146101d95761007b565b806311610c25146100805780635ec01e4d146100ab57806367cb61b6146100d6578063853828b614610101575b600080fd5b34801561008c57600080fd5b506100956101e3565b6040518082815260200191505060405180910390f35b3480156100b757600080fd5b506100c06101e9565b6040518082815260200191505060405180910390f35b3480156100e257600080fd5b506100eb6101fb565b6040518082815260200191505060405180910390f35b34801561010d57600080fd5b50610116610205565b6040518082815260200191505060405180910390f35b34801561013857600080fd5b506101416102bd565b604051808273ffffffffffffffffffffffffffffffffffffffff1673ffffffffffffffffffffffffffffffffffffffff16815260200191505060405180910390f35b34801561018f57600080fd5b506101986102e2565b6040518082815260200191505060405180910390f35b3480156101ba57600080fd5b506101c36102e8565b6040518082815260200191505060405180910390f35b6101e16102ee565b005b60035481565b6000600242816101f557fe5b06905090565b6000600154905090565b60008060009054906101000a900473ffffffffffffffffffffffffffffffffffffffff1673ffffffffffffffffffffffffffffffffffffffff163373ffffffffffffffffffffffffffffffffffffffff161461026057600080fd5b6000600454905060006004819055503373ffffffffffffffffffffffffffffffffffffffff166108fc829081150290604051600060405180830381858888f193505050501580156102b5573d6000803e3d6000fd5b508091505090565b6000809054906101000a900473ffffffffffffffffffffffffffffffffffffffff1681565b60015481565b60045481565b670de0b6b3a76400008034101561030457600080fd5b670de0b6b3a764000034101561031957600080fd5b6103216101fb565b60018190555061032f6101e9565b60028190555034600381905550600154600254141561035e57600260036000828254029250508190555061035f565b5b6003546004600082825401925050819055505056fea26469706673582212204ffff1bb2585652461d95b1f0e8e62efcb890d9d11d95c503b1896bbab8b790564736f6c634300060a0033",
  "source": "import \"./Ownable.sol\";\r\n\r\npragma solidity 0.6.10;\r\n\r\n// SPDX-License-Identifier: UNLICENSED\r\n\r\ncontract Coinflip00 is Ownable {\r\n\r\n  uint public choice;\r\n  uint private res;\r\n  uint public bet;\r\n  uint public balance;\r\n\r\n  modifier costs(uint cost){\r\n    require(msg.value>=cost);\r\n    _;\r\n  }\r\n\r\n  function getChoice() public view returns (uint){\r\n    return choice;\r\n  }\r\n\r\n  function random() public  view returns (uint){\r\n    //res = now % 2;\r\n  //  return now;\r\n    return now % 2;\r\n  }\r\n\r\n  function flipping() public payable costs(1 ether) {\r\n    require(msg.value >= 1 ether);\r\n    choice = getChoice();\r\n    res = random();\r\n    bet = msg.value;\r\n    if (res == choice) { bet *= 2;}\r\n    else bet == 0;\r\n    balance += bet;\r\n    //return res;\r\n  }\r\n\r\n  function updateBet(uint headTail) private  returns (uint){\r\n    if (res == headTail) {balance *= 2;}\r\n    else balance == 0;\r\n    return balance;\r\n  }\r\n\r\n  function withdrawAll() public  onlyOwner returns(uint){\r\n    //checkBet(headTail);\r\n    uint toTransfer = balance;\r\n    balance = 0;\r\n    msg.sender.transfer(toTransfer);\r\n    return toTransfer;\r\n  }\r\n}\r\n",
  "sourcePath": "C:\\Users\\after\\Desktop\\projects\\Ivan_Academy\\ethereum_course201\\coinflip\\contracts\\coinflip_v0.sol",
  "compiler": {
    "name": "solc",
    "version": "0.6.10+commit.00c0fcaf.Emscripten.clang"
  },
  "schemaVersion": "3.0.23",
  "updatedAt": "2020-07-21T14:51:42.248Z",
  "devdoc": {
    "methods": {}
  },
  "userdoc": {
    "methods": {}
  }
}