{
  "contractName": "Coinflip_v4",
  "abi": [
    {
      "inputs": [],
      "stateMutability": "nonpayable",
      "type": "constructor"
    },
    {
      "inputs": [],
      "name": "balance",
      "outputs": [
        {
          "internalType": "uint256",
          "name": "",
          "type": "uint256"
        }
      ],
      "stateMutability": "view",
      "type": "function"
    },
    {
      "inputs": [],
      "name": "getBalance",
      "outputs": [
        {
          "internalType": "uint256",
          "name": "",
          "type": "uint256"
        }
      ],
      "stateMutability": "view",
      "type": "function"
    },
    {
      "inputs": [],
      "name": "random",
      "outputs": [
        {
          "internalType": "uint256",
          "name": "",
          "type": "uint256"
        }
      ],
      "stateMutability": "view",
      "type": "function"
    },
    {
      "inputs": [],
      "name": "flipHead",
      "outputs": [],
      "stateMutability": "payable",
      "type": "function"
    },
    {
      "inputs": [],
      "name": "flipTail",
      "outputs": [],
      "stateMutability": "payable",
      "type": "function"
    },
    {
      "inputs": [],
      "name": "withdrawAll",
      "outputs": [
        {
          "internalType": "uint256",
          "name": "",
          "type": "uint256"
        }
      ],
      "stateMutability": "nonpayable",
      "type": "function"
    }
  ],
  "bytecode": "0x608060405234801561001057600080fd5b50336000806101000a81548173ffffffffffffffffffffffffffffffffffffffff021916908373ffffffffffffffffffffffffffffffffffffffff1602179055506102d8806100606000396000f3fe6080604052600436106100555760003560e01c806312065fe01461005a5780635ec01e4d146100855780637a598213146100b0578063853828b6146100ba578063b69ef8a8146100e5578063cbcc200b14610110575b600080fd5b34801561006657600080fd5b5061006f61011a565b6040518082815260200191505060405180910390f35b34801561009157600080fd5b5061009a610124565b6040518082815260200191505060405180910390f35b6100b861012c565b005b3480156100c657600080fd5b506100cf6101b5565b6040518082815260200191505060405180910390f35b3480156100f157600080fd5b506100fa610213565b6040518082815260200191505060405180910390f35b610118610219565b005b6000600154905090565b600042905090565b670de0b6b3a76400008034101561014257600080fd5b60006002428161014e57fe5b0690506000349050600081600302905060008314156101af573373ffffffffffffffffffffffffffffffffffffffff166108fc829081150290604051600060405180830381858888f193505050501580156101ad573d6000803e3d6000fd5b505b50505050565b600080600154905060006001819055503373ffffffffffffffffffffffffffffffffffffffff166108fc829081150290604051600060405180830381858888f1935050505015801561020b573d6000803e3d6000fd5b508091505090565b60015481565b670de0b6b3a76400008034101561022f57600080fd5b60006002428161023b57fe5b06905060003490506000816003029050600183141561029c573373ffffffffffffffffffffffffffffffffffffffff166108fc829081150290604051600060405180830381858888f1935050505015801561029a573d6000803e3d6000fd5b505b5050505056fea2646970667358221220dd533bb670fe567630b221d347001910d1dac8beaa624dd219e595f2ca43fbef64736f6c634300060a0033",
  "source": "import \"./Ownable.sol\";\r\n\r\npragma solidity 0.6.10;\r\n\r\n// SPDX-License-Identifier: UNLICENSED\r\n\r\ncontract Coinflip_v4  {\r\n\r\n  address owner;\r\n  uint public balance;\r\n\r\n\r\n  constructor() public{\r\n    owner = msg.sender;\r\n  }\r\n\r\n  modifier costs(uint cost){\r\n    require(msg.value>=cost);\r\n    _;\r\n  }\r\n\r\n  function getBalance()  public  view returns (uint){\r\n    return balance;\r\n  }\r\n\r\n  function random() public view returns (uint){\r\n    return now ;\r\n  }\r\n\r\n  function flipHead() public payable costs(1 ether){\r\n    uint time = now % 2;\r\n    uint bet = msg.value;\r\n    uint bet3 = 3*bet;\r\n    if (time  == 0){\r\n      msg.sender.transfer(bet3);\r\n    }\r\n  }\r\n\r\n  function flipTail() public payable costs(1 ether){\r\n    uint time = now % 2;\r\n    uint bet = msg.value;\r\n    uint bet3 = 3*bet;\r\n    if (time  == 1){\r\n      msg.sender.transfer(bet3);\r\n    }\r\n  }\r\n  function withdrawAll() public   returns(uint){\r\n    //checkBet(headTail);\r\n    uint toTransfer = balance;\r\n    balance = 0;\r\n    msg.sender.transfer(toTransfer);\r\n    return toTransfer;\r\n  }\r\n}\r\n",
  "sourcePath": "C:\\Users\\after\\Desktop\\projects\\Ivan_Academy\\ethereum_course201\\coinflip\\contracts\\coinflip_v4_working.sol",
  "compiler": {
    "name": "solc",
    "version": "0.6.10+commit.00c0fcaf.Emscripten.clang"
  },
  "schemaVersion": "3.0.23",
  "updatedAt": "2020-07-21T14:51:42.254Z",
  "devdoc": {
    "methods": {}
  },
  "userdoc": {
    "methods": {}
  }
}